{"abi":[{"type":"constructor","inputs":[{"name":"_worldId","type":"address","internalType":"contract IWorldID"},{"name":"_appId","type":"string","internalType":"string"},{"name":"_actionId","type":"string","internalType":"string"}],"stateMutability":"nonpayable"},{"type":"function","name":"verifyAndExecute","inputs":[{"name":"signal","type":"address","internalType":"address"},{"name":"root","type":"uint256","internalType":"uint256"},{"name":"nullifierHash","type":"uint256","internalType":"uint256"},{"name":"proof","type":"uint256[8]","internalType":"uint256[8]"}],"outputs":[],"stateMutability":"nonpayable"},{"type":"event","name":"Verified","inputs":[{"name":"nullifierHash","type":"uint256","indexed":false,"internalType":"uint256"}],"anonymous":false},{"type":"error","name":"DuplicateNullifier","inputs":[{"name":"nullifierHash","type":"uint256","internalType":"uint256"}]}],"bytecode":{"object":"0x60e0604052600160c05234801561001557600080fd5b5060405161057c38038061057c83398101604081905261003491610183565b6001600160a01b0383166080526040516100819061006f9061005a908590602001610205565b60408051601f1981840301815291905261008d565b8260405160200161005a929190610221565b60a05250610247915050565b60006008826040516020016100a29190610205565b60408051601f198184030181529190528051602090910120901c92915050565b634e487b7160e01b600052604160045260246000fd5b60005b838110156100f35781810151838201526020016100db565b50506000910152565b600082601f83011261010d57600080fd5b81516001600160401b0380821115610127576101276100c2565b604051601f8301601f19908116603f0116810190828211818310171561014f5761014f6100c2565b8160405283815286602085880101111561016857600080fd5b6101798460208301602089016100d8565b9695505050505050565b60008060006060848603121561019857600080fd5b83516001600160a01b03811681146101af57600080fd5b60208501519093506001600160401b03808211156101cc57600080fd5b6101d8878388016100fc565b935060408601519150808211156101ee57600080fd5b506101fb868287016100fc565b9150509250925092565b600082516102178184602087016100d8565b9190910192915050565b828152600082516102398160208501602087016100d8565b919091016020019392505050565b60805160a05160c051610308610274600039600060ae0152600061011001526000607e01526103086000f3fe608060405234801561001057600080fd5b506004361061002b5760003560e01c8063e9b7055314610030575b600080fd5b61004361003e36600461020f565b610045565b005b60008281526020819052604090205460ff161561007c57604051633c7fd51360e11b81526004810183905260240160405180910390fd5b7f00000000000000000000000000000000000000000000000000000000000000006001600160a01b0316633bc778e3847f000000000000000000000000000000000000000000000000000000000000000061010d886040516020016100f9919060609190911b6bffffffffffffffffffffffff1916815260140190565b6040516020818303038152906040526101da565b867f0000000000000000000000000000000000000000000000000000000000000000876040518763ffffffff1660e01b81526004016101519695949392919061026b565b60006040518083038186803b15801561016957600080fd5b505afa15801561017d573d6000803e3d6000fd5b50505060008381526020819052604090819020805460ff19166001179055517ff786e7f77ede00a02a5464f8f0555798f42ba99a4a920ef2778db8d75e4656f791506101cc9084815260200190565b60405180910390a150505050565b60006008826040516020016101ef91906102a3565b60408051601f198184030181529190528051602090910120901c92915050565b60008060008061016080868803121561022757600080fd5b85356001600160a01b038116811461023e57600080fd5b9450602086013593506040860135925080860187101561025d57600080fd5b509295919450926060019150565b60006101a0820190508782528660208301528560408301528460608301528360808301526101008360a0840137979650505050505050565b6000825160005b818110156102c457602081860181015185830152016102aa565b50600092019182525091905056fea2646970667358221220c065394952683d1cfc32dbc9a662a03e8d686ca51cae53389c20ac0f932b8d8c64736f6c63430008180033","linkReferences":{}},"methodIdentifiers":{"verifyAndExecute(address,uint256,uint256,uint256[8])":"e9b70553"},"id":0}